{
  "address": "0x5FbDB2315678afecb367f032d93F642f64180aa3",
  "abi": [
    {
      "inputs": [
        {
          "internalType": "address",
          "name": "_platformWallet",
          "type": "address"
        }
      ],
      "stateMutability": "nonpayable",
      "type": "constructor"
    },
    {
      "anonymous": false,
      "inputs": [
        {
          "indexed": true,
          "internalType": "address",
          "name": "owner",
          "type": "address"
        },
        {
          "indexed": true,
          "internalType": "address",
          "name": "approved",
          "type": "address"
        },
        {
          "indexed": true,
          "internalType": "uint256",
          "name": "tokenId",
          "type": "uint256"
        }
      ],
      "name": "Approval",
      "type": "event"
    },
    {
      "anonymous": false,
      "inputs": [
        {
          "indexed": true,
          "internalType": "address",
          "name": "owner",
          "type": "address"
        },
        {
          "indexed": true,
          "internalType": "address",
          "name": "operator",
          "type": "address"
        },
        {
          "indexed": false,
          "internalType": "bool",
          "name": "approved",
          "type": "bool"
        }
      ],
      "name": "ApprovalForAll",
      "type": "event"
    },
    {
      "anonymous": false,
      "inputs": [
        {
          "indexed": false,
          "internalType": "uint256",
          "name": "_fromTokenId",
          "type": "uint256"
        },
        {
          "indexed": false,
          "internalType": "uint256",
          "name": "_toTokenId",
          "type": "uint256"
        }
      ],
      "name": "BatchMetadataUpdate",
      "type": "event"
    },
    {
      "anonymous": false,
      "inputs": [
        {
          "indexed": true,
          "internalType": "address",
          "name": "creator",
          "type": "address"
        },
        {
          "indexed": false,
          "internalType": "uint256",
          "name": "amount",
          "type": "uint256"
        }
      ],
      "name": "CreatorWithdraw",
      "type": "event"
    },
    {
      "anonymous": false,
      "inputs": [
        {
          "indexed": false,
          "internalType": "uint256",
          "name": "_tokenId",
          "type": "uint256"
        }
      ],
      "name": "MetadataUpdate",
      "type": "event"
    },
    {
      "anonymous": false,
      "inputs": [
        {
          "indexed": true,
          "internalType": "uint256",
          "name": "tokenId",
          "type": "uint256"
        },
        {
          "indexed": false,
          "internalType": "uint256",
          "name": "price",
          "type": "uint256"
        },
        {
          "indexed": false,
          "internalType": "uint256",
          "name": "rentPrice",
          "type": "uint256"
        }
      ],
      "name": "NFTListed",
      "type": "event"
    },
    {
      "anonymous": false,
      "inputs": [
        {
          "indexed": true,
          "internalType": "uint256",
          "name": "tokenId",
          "type": "uint256"
        },
        {
          "indexed": true,
          "internalType": "address",
          "name": "creator",
          "type": "address"
        },
        {
          "indexed": false,
          "internalType": "string",
          "name": "tokenURI",
          "type": "string"
        }
      ],
      "name": "NFTMinted",
      "type": "event"
    },
    {
      "anonymous": false,
      "inputs": [
        {
          "indexed": true,
          "internalType": "uint256",
          "name": "tokenId",
          "type": "uint256"
        },
        {
          "indexed": true,
          "internalType": "address",
          "name": "renter",
          "type": "address"
        },
        {
          "indexed": false,
          "internalType": "uint256",
          "name": "duration",
          "type": "uint256"
        }
      ],
      "name": "NFTRented",
      "type": "event"
    },
    {
      "anonymous": false,
      "inputs": [
        {
          "indexed": true,
          "internalType": "uint256",
          "name": "tokenId",
          "type": "uint256"
        },
        {
          "indexed": true,
          "internalType": "address",
          "name": "seller",
          "type": "address"
        },
        {
          "indexed": true,
          "internalType": "address",
          "name": "buyer",
          "type": "address"
        },
        {
          "indexed": false,
          "internalType": "uint256",
          "name": "price",
          "type": "uint256"
        }
      ],
      "name": "NFTSold",
      "type": "event"
    },
    {
      "anonymous": false,
      "inputs": [
        {
          "indexed": true,
          "internalType": "address",
          "name": "previousOwner",
          "type": "address"
        },
        {
          "indexed": true,
          "internalType": "address",
          "name": "newOwner",
          "type": "address"
        }
      ],
      "name": "OwnershipTransferred",
      "type": "event"
    },
    {
      "anonymous": false,
      "inputs": [
        {
          "indexed": false,
          "internalType": "address",
          "name": "account",
          "type": "address"
        }
      ],
      "name": "Paused",
      "type": "event"
    },
    {
      "anonymous": false,
      "inputs": [
        {
          "indexed": true,
          "internalType": "uint256",
          "name": "tokenId",
          "type": "uint256"
        },
        {
          "indexed": false,
          "internalType": "uint96",
          "name": "royaltyPoints",
          "type": "uint96"
        }
      ],
      "name": "RoyaltyUpdated",
      "type": "event"
    },
    {
      "anonymous": false,
      "inputs": [
        {
          "indexed": true,
          "internalType": "uint256",
          "name": "tokenId",
          "type": "uint256"
        },
        {
          "indexed": false,
          "internalType": "bool",
          "name": "status",
          "type": "bool"
        }
      ],
      "name": "TokenBlacklisted",
      "type": "event"
    },
    {
      "anonymous": false,
      "inputs": [
        {
          "indexed": true,
          "internalType": "address",
          "name": "from",
          "type": "address"
        },
        {
          "indexed": true,
          "internalType": "address",
          "name": "to",
          "type": "address"
        },
        {
          "indexed": true,
          "internalType": "uint256",
          "name": "tokenId",
          "type": "uint256"
        }
      ],
      "name": "Transfer",
      "type": "event"
    },
    {
      "anonymous": false,
      "inputs": [
        {
          "indexed": false,
          "internalType": "address",
          "name": "account",
          "type": "address"
        }
      ],
      "name": "Unpaused",
      "type": "event"
    },
    {
      "inputs": [],
      "name": "MAX_ROYALTY",
      "outputs": [
        {
          "internalType": "uint256",
          "name": "",
          "type": "uint256"
        }
      ],
      "stateMutability": "view",
      "type": "function"
    },
    {
      "inputs": [],
      "name": "PLATFORM_FEE",
      "outputs": [
        {
          "internalType": "uint256",
          "name": "",
          "type": "uint256"
        }
      ],
      "stateMutability": "view",
      "type": "function"
    },
    {
      "inputs": [
        {
          "internalType": "address",
          "name": "to",
          "type": "address"
        },
        {
          "internalType": "uint256",
          "name": "tokenId",
          "type": "uint256"
        }
      ],
      "name": "approve",
      "outputs": [],
      "stateMutability": "nonpayable",
      "type": "function"
    },
    {
      "inputs": [
        {
          "internalType": "address",
          "name": "owner",
          "type": "address"
        }
      ],
      "name": "balanceOf",
      "outputs": [
        {
          "internalType": "uint256",
          "name": "",
          "type": "uint256"
        }
      ],
      "stateMutability": "view",
      "type": "function"
    },
    {
      "inputs": [
        {
          "internalType": "uint256",
          "name": "tokenId",
          "type": "uint256"
        }
      ],
      "name": "buyNFT",
      "outputs": [],
      "stateMutability": "payable",
      "type": "function"
    },
    {
      "inputs": [
        {
          "internalType": "address",
          "name": "",
          "type": "address"
        }
      ],
      "name": "creatorBalance",
      "outputs": [
        {
          "internalType": "uint256",
          "name": "",
          "type": "uint256"
        }
      ],
      "stateMutability": "view",
      "type": "function"
    },
    {
      "inputs": [
        {
          "internalType": "uint256",
          "name": "",
          "type": "uint256"
        }
      ],
      "name": "creators",
      "outputs": [
        {
          "internalType": "address",
          "name": "",
          "type": "address"
        }
      ],
      "stateMutability": "view",
      "type": "function"
    },
    {
      "inputs": [
        {
          "internalType": "uint256",
          "name": "tokenId",
          "type": "uint256"
        }
      ],
      "name": "getApproved",
      "outputs": [
        {
          "internalType": "address",
          "name": "",
          "type": "address"
        }
      ],
      "stateMutability": "view",
      "type": "function"
    },
    {
      "inputs": [
        {
          "internalType": "address",
          "name": "owner",
          "type": "address"
        },
        {
          "internalType": "address",
          "name": "operator",
          "type": "address"
        }
      ],
      "name": "isApprovedForAll",
      "outputs": [
        {
          "internalType": "bool",
          "name": "",
          "type": "bool"
        }
      ],
      "stateMutability": "view",
      "type": "function"
    },
    {
      "inputs": [
        {
          "internalType": "uint256",
          "name": "tokenId",
          "type": "uint256"
        },
        {
          "internalType": "uint256",
          "name": "price",
          "type": "uint256"
        },
        {
          "internalType": "uint256",
          "name": "rentPrice",
          "type": "uint256"
        }
      ],
      "name": "listNFT",
      "outputs": [],
      "stateMutability": "nonpayable",
      "type": "function"
    },
    {
      "inputs": [
        {
          "internalType": "uint256",
          "name": "",
          "type": "uint256"
        }
      ],
      "name": "listings",
      "outputs": [
        {
          "internalType": "address",
          "name": "seller",
          "type": "address"
        },
        {
          "internalType": "uint256",
          "name": "price",
          "type": "uint256"
        },
        {
          "internalType": "uint256",
          "name": "rentPrice",
          "type": "uint256"
        },
        {
          "internalType": "bool",
          "name": "isListed",
          "type": "bool"
        }
      ],
      "stateMutability": "view",
      "type": "function"
    },
    {
      "inputs": [
        {
          "internalType": "string",
          "name": "_tokenURI",
          "type": "string"
        },
        {
          "internalType": "uint96",
          "name": "royaltyPoints",
          "type": "uint96"
        }
      ],
      "name": "mintNFT",
      "outputs": [
        {
          "internalType": "uint256",
          "name": "",
          "type": "uint256"
        }
      ],
      "stateMutability": "nonpayable",
      "type": "function"
    },
    {
      "inputs": [],
      "name": "name",
      "outputs": [
        {
          "internalType": "string",
          "name": "",
          "type": "string"
        }
      ],
      "stateMutability": "view",
      "type": "function"
    },
    {
      "inputs": [],
      "name": "owner",
      "outputs": [
        {
          "internalType": "address",
          "name": "",
          "type": "address"
        }
      ],
      "stateMutability": "view",
      "type": "function"
    },
    {
      "inputs": [
        {
          "internalType": "uint256",
          "name": "tokenId",
          "type": "uint256"
        }
      ],
      "name": "ownerOf",
      "outputs": [
        {
          "internalType": "address",
          "name": "",
          "type": "address"
        }
      ],
      "stateMutability": "view",
      "type": "function"
    },
    {
      "inputs": [],
      "name": "pause",
      "outputs": [],
      "stateMutability": "nonpayable",
      "type": "function"
    },
    {
      "inputs": [],
      "name": "paused",
      "outputs": [
        {
          "internalType": "bool",
          "name": "",
          "type": "bool"
        }
      ],
      "stateMutability": "view",
      "type": "function"
    },
    {
      "inputs": [],
      "name": "platformWallet",
      "outputs": [
        {
          "internalType": "address",
          "name": "",
          "type": "address"
        }
      ],
      "stateMutability": "view",
      "type": "function"
    },
    {
      "inputs": [],
      "name": "renounceOwnership",
      "outputs": [],
      "stateMutability": "nonpayable",
      "type": "function"
    },
    {
      "inputs": [
        {
          "internalType": "uint256",
          "name": "tokenId",
          "type": "uint256"
        },
        {
          "internalType": "uint256",
          "name": "duration",
          "type": "uint256"
        }
      ],
      "name": "rentNFT",
      "outputs": [],
      "stateMutability": "payable",
      "type": "function"
    },
    {
      "inputs": [
        {
          "internalType": "uint256",
          "name": "",
          "type": "uint256"
        }
      ],
      "name": "rentals",
      "outputs": [
        {
          "internalType": "address",
          "name": "renter",
          "type": "address"
        },
        {
          "internalType": "uint256",
          "name": "expires",
          "type": "uint256"
        },
        {
          "internalType": "bool",
          "name": "isRented",
          "type": "bool"
        }
      ],
      "stateMutability": "view",
      "type": "function"
    },
    {
      "inputs": [
        {
          "internalType": "uint256",
          "name": "tokenId",
          "type": "uint256"
        },
        {
          "internalType": "uint256",
          "name": "salePrice",
          "type": "uint256"
        }
      ],
      "name": "royaltyInfo",
      "outputs": [
        {
          "internalType": "address",
          "name": "",
          "type": "address"
        },
        {
          "internalType": "uint256",
          "name": "",
          "type": "uint256"
        }
      ],
      "stateMutability": "view",
      "type": "function"
    },
    {
      "inputs": [
        {
          "internalType": "address",
          "name": "from",
          "type": "address"
        },
        {
          "internalType": "address",
          "name": "to",
          "type": "address"
        },
        {
          "internalType": "uint256",
          "name": "tokenId",
          "type": "uint256"
        }
      ],
      "name": "safeTransferFrom",
      "outputs": [],
      "stateMutability": "nonpayable",
      "type": "function"
    },
    {
      "inputs": [
        {
          "internalType": "address",
          "name": "from",
          "type": "address"
        },
        {
          "internalType": "address",
          "name": "to",
          "type": "address"
        },
        {
          "internalType": "uint256",
          "name": "tokenId",
          "type": "uint256"
        },
        {
          "internalType": "bytes",
          "name": "data",
          "type": "bytes"
        }
      ],
      "name": "safeTransferFrom",
      "outputs": [],
      "stateMutability": "nonpayable",
      "type": "function"
    },
    {
      "inputs": [
        {
          "internalType": "address",
          "name": "operator",
          "type": "address"
        },
        {
          "internalType": "bool",
          "name": "approved",
          "type": "bool"
        }
      ],
      "name": "setApprovalForAll",
      "outputs": [],
      "stateMutability": "nonpayable",
      "type": "function"
    },
    {
      "inputs": [
        {
          "internalType": "address",
          "name": "newWallet",
          "type": "address"
        }
      ],
      "name": "setPlatformWallet",
      "outputs": [],
      "stateMutability": "nonpayable",
      "type": "function"
    },
    {
      "inputs": [
        {
          "internalType": "uint256",
          "name": "tokenId",
          "type": "uint256"
        },
        {
          "internalType": "bool",
          "name": "status",
          "type": "bool"
        }
      ],
      "name": "setTokenBlacklist",
      "outputs": [],
      "stateMutability": "nonpayable",
      "type": "function"
    },
    {
      "inputs": [
        {
          "internalType": "bytes4",
          "name": "interfaceId",
          "type": "bytes4"
        }
      ],
      "name": "supportsInterface",
      "outputs": [
        {
          "internalType": "bool",
          "name": "",
          "type": "bool"
        }
      ],
      "stateMutability": "view",
      "type": "function"
    },
    {
      "inputs": [],
      "name": "symbol",
      "outputs": [
        {
          "internalType": "string",
          "name": "",
          "type": "string"
        }
      ],
      "stateMutability": "view",
      "type": "function"
    },
    {
      "inputs": [
        {
          "internalType": "uint256",
          "name": "",
          "type": "uint256"
        }
      ],
      "name": "tokenBlacklist",
      "outputs": [
        {
          "internalType": "bool",
          "name": "",
          "type": "bool"
        }
      ],
      "stateMutability": "view",
      "type": "function"
    },
    {
      "inputs": [
        {
          "internalType": "uint256",
          "name": "tokenId",
          "type": "uint256"
        }
      ],
      "name": "tokenURI",
      "outputs": [
        {
          "internalType": "string",
          "name": "",
          "type": "string"
        }
      ],
      "stateMutability": "view",
      "type": "function"
    },
    {
      "inputs": [
        {
          "internalType": "address",
          "name": "from",
          "type": "address"
        },
        {
          "internalType": "address",
          "name": "to",
          "type": "address"
        },
        {
          "internalType": "uint256",
          "name": "tokenId",
          "type": "uint256"
        }
      ],
      "name": "transferFrom",
      "outputs": [],
      "stateMutability": "nonpayable",
      "type": "function"
    },
    {
      "inputs": [
        {
          "internalType": "address",
          "name": "newOwner",
          "type": "address"
        }
      ],
      "name": "transferOwnership",
      "outputs": [],
      "stateMutability": "nonpayable",
      "type": "function"
    },
    {
      "inputs": [],
      "name": "unpause",
      "outputs": [],
      "stateMutability": "nonpayable",
      "type": "function"
    },
    {
      "inputs": [],
      "name": "withdrawCreatorBalance",
      "outputs": [],
      "stateMutability": "nonpayable",
      "type": "function"
    }
  ],
  "transactionHash": "0xcbb5f19f57fa8c47229bcd5292aab58fdb6fc2211fafca183b102de5d9df848f",
  "args": [
    "0xf0E9be6bbB3a54f35d9006E6a8D07c0d833f085c"
  ],
  "numDeployments": 1,
  "solcInputHash": "183eab50ffc2eb399a678b29a41a5ed2",
  "bytecode": "0x60806040523480156200001157600080fd5b5060405162005bc938038062005bc98339818101604052810190620000379190620002fe565b6040518060400160405280600a81526020017f4f776e50696374757265000000000000000000000000000000000000000000008152506040518060400160405280600381526020017f4f575000000000000000000000000000000000000000000000000000000000008152508160029081620000b49190620005aa565b508060039081620000c69190620005aa565b5050506001600981905550620000f1620000e5620001c660201b60201c565b620001ce60201b60201c565b6000600a60146101000a81548160ff021916908315150217905550600073ffffffffffffffffffffffffffffffffffffffff168173ffffffffffffffffffffffffffffffffffffffff16036200017e576040517f08c379a00000000000000000000000000000000000000000000000000000000081526004016200017590620006f2565b60405180910390fd5b80601160006101000a81548173ffffffffffffffffffffffffffffffffffffffff021916908373ffffffffffffffffffffffffffffffffffffffff1602179055505062000714565b600033905090565b6000600a60009054906101000a900473ffffffffffffffffffffffffffffffffffffffff16905081600a60006101000a81548173ffffffffffffffffffffffffffffffffffffffff021916908373ffffffffffffffffffffffffffffffffffffffff1602179055508173ffffffffffffffffffffffffffffffffffffffff168173ffffffffffffffffffffffffffffffffffffffff167f8be0079c531659141344cd1fd0a4f28419497f9722a3daafe3b4186f6b6457e060405160405180910390a35050565b600080fd5b600073ffffffffffffffffffffffffffffffffffffffff82169050919050565b6000620002c68262000299565b9050919050565b620002d881620002b9565b8114620002e457600080fd5b50565b600081519050620002f881620002cd565b92915050565b60006020828403121562000317576200031662000294565b5b60006200032784828501620002e7565b91505092915050565b600081519050919050565b7f4e487b7100000000000000000000000000000000000000000000000000000000600052604160045260246000fd5b7f4e487b7100000000000000000000000000000000000000000000000000000000600052602260045260246000fd5b60006002820490506001821680620003b257607f821691505b602082108103620003c857620003c76200036a565b5b50919050565b60008190508160005260206000209050919050565b60006020601f8301049050919050565b600082821b905092915050565b600060088302620004327fffffffffffffffffffffffffffffffffffffffffffffffffffffffffffffffff82620003f3565b6200043e8683620003f3565b95508019841693508086168417925050509392505050565b6000819050919050565b6000819050919050565b60006200048b620004856200047f8462000456565b62000460565b62000456565b9050919050565b6000819050919050565b620004a7836200046a565b620004bf620004b68262000492565b84845462000400565b825550505050565b600090565b620004d6620004c7565b620004e38184846200049c565b505050565b5b818110156200050b57620004ff600082620004cc565b600181019050620004e9565b5050565b601f8211156200055a576200052481620003ce565b6200052f84620003e3565b810160208510156200053f578190505b620005576200054e85620003e3565b830182620004e8565b50505b505050565b600082821c905092915050565b60006200057f600019846008026200055f565b1980831691505092915050565b60006200059a83836200056c565b9150826002028217905092915050565b620005b58262000330565b67ffffffffffffffff811115620005d157620005d06200033b565b5b620005dd825462000399565b620005ea8282856200050f565b600060209050601f8311600181146200062257600084156200060d578287015190505b6200061985826200058c565b86555062000689565b601f1984166200063286620003ce565b60005b828110156200065c5784890151825560018201915060208501945060208101905062000635565b868310156200067c578489015162000678601f8916826200056c565b8355505b6001600288020188555050505b505050505050565b600082825260208201905092915050565b7f496e76616c696420706c6174666f726d2077616c6c6574000000000000000000600082015250565b6000620006da60178362000691565b9150620006e782620006a2565b602082019050919050565b600060208201905081810360008301526200070d81620006cb565b9050919050565b6154a580620007246000396000f3fe6080604052600436106102045760003560e01c80638da5cb5b11610118578063d83e5f4d116100a0578063e6f614b91161006f578063e6f614b914610763578063e985e9c51461078c578063f2fde38b146107c9578063f49daf10146107f2578063fa2af9da1461082f57610204565b8063d83e5f4d1461067e578063de74e57b146106a9578063e3555ad4146106e9578063e6cd7ab61461072657610204565b8063af94a1d1116100e7578063af94a1d114610573578063b0136c8d146105b2578063b88d4fde146105db578063c87b56dd14610604578063cd53d08e1461064157610204565b80638da5cb5b146104d857806393b2d6a01461050357806395d89b411461051f578063a22cb4651461054a57610204565b80633f4ba83a1161019b5780636352211e1161016a5780636352211e1461040757806370a0823114610444578063715018a6146104815780638456cb59146104985780638831e9cf146104af57610204565b80633f4ba83a1461038057806342842e0e1461039757806351ed8288146103c05780635c975abb146103dc57610204565b806323b872dd116101d757806323b872dd146102d757806327935f98146103005780632a55205a1461031757806334fbc9a11461035557610204565b806301ffc9a71461020957806306fdde0314610246578063081812fc14610271578063095ea7b3146102ae575b600080fd5b34801561021557600080fd5b50610230600480360381019061022b9190613855565b61085a565b60405161023d919061389d565b60405180910390f35b34801561025257600080fd5b5061025b61086c565b6040516102689190613948565b60405180910390f35b34801561027d57600080fd5b50610298600480360381019061029391906139a0565b6108fe565b6040516102a59190613a0e565b60405180910390f35b3480156102ba57600080fd5b506102d560048036038101906102d09190613a55565b610944565b005b3480156102e357600080fd5b506102fe60048036038101906102f99190613a95565b610a5b565b005b34801561030c57600080fd5b50610315610abb565b005b34801561032357600080fd5b5061033e60048036038101906103399190613ae8565b610c2f565b60405161034c929190613b37565b60405180910390f35b34801561036157600080fd5b5061036a610e19565b6040516103779190613b60565b60405180910390f35b34801561038c57600080fd5b50610395610e1e565b005b3480156103a357600080fd5b506103be60048036038101906103b99190613a95565b610e30565b005b6103da60048036038101906103d591906139a0565b610e50565b005b3480156103e857600080fd5b506103f1611245565b6040516103fe919061389d565b60405180910390f35b34801561041357600080fd5b5061042e600480360381019061042991906139a0565b61125c565b60405161043b9190613a0e565b60405180910390f35b34801561045057600080fd5b5061046b60048036038101906104669190613b7b565b6112e2565b6040516104789190613b60565b60405180910390f35b34801561048d57600080fd5b50610496611399565b005b3480156104a457600080fd5b506104ad6113ad565b005b3480156104bb57600080fd5b506104d660048036038101906104d19190613b7b565b6113bf565b005b3480156104e457600080fd5b506104ed61147a565b6040516104fa9190613a0e565b60405180910390f35b61051d60048036038101906105189190613ae8565b6114a4565b005b34801561052b57600080fd5b5061053461192a565b6040516105419190613948565b60405180910390f35b34801561055657600080fd5b50610571600480360381019061056c9190613bd4565b6119bc565b005b34801561057f57600080fd5b5061059a600480360381019061059591906139a0565b6119d2565b6040516105a993929190613c14565b60405180910390f35b3480156105be57600080fd5b506105d960048036038101906105d49190613c4b565b611a29565b005b3480156105e757600080fd5b5061060260048036038101906105fd9190613dd3565b611cbb565b005b34801561061057600080fd5b5061062b600480360381019061062691906139a0565b611d1d565b6040516106389190613948565b60405180910390f35b34801561064d57600080fd5b50610668600480360381019061066391906139a0565b611d2f565b6040516106759190613a0e565b60405180910390f35b34801561068a57600080fd5b50610693611d62565b6040516106a09190613b60565b60405180910390f35b3480156106b557600080fd5b506106d060048036038101906106cb91906139a0565b611d68565b6040516106e09493929190613e56565b60405180910390f35b3480156106f557600080fd5b50610710600480360381019061070b91906139a0565b611dc5565b60405161071d919061389d565b60405180910390f35b34801561073257600080fd5b5061074d60048036038101906107489190613b7b565b611de5565b60405161075a9190613b60565b60405180910390f35b34801561076f57600080fd5b5061078a60048036038101906107859190613e9b565b611dfd565b005b34801561079857600080fd5b506107b360048036038101906107ae9190613edb565b611e6c565b6040516107c0919061389d565b60405180910390f35b3480156107d557600080fd5b506107f060048036038101906107eb9190613b7b565b611f00565b005b3480156107fe57600080fd5b5061081960048036038101906108149190614000565b611f83565b6040516108269190613b60565b60405180910390f35b34801561083b57600080fd5b506108446120c2565b6040516108519190613a0e565b60405180910390f35b6000610865826120e8565b9050919050565b60606002805461087b9061408b565b80601f01602080910402602001604051908101604052809291908181526020018280546108a79061408b565b80156108f45780601f106108c9576101008083540402835291602001916108f4565b820191906000526020600020905b8154815290600101906020018083116108d757829003601f168201915b5050505050905090565b6000610909826120fa565b6006600083815260200190815260200160002060009054906101000a900473ffffffffffffffffffffffffffffffffffffffff169050919050565b600061094f8261125c565b90508073ffffffffffffffffffffffffffffffffffffffff168373ffffffffffffffffffffffffffffffffffffffff16036109bf576040517f08c379a00000000000000000000000000000000000000000000000000000000081526004016109b69061412e565b60405180910390fd5b8073ffffffffffffffffffffffffffffffffffffffff166109de612145565b73ffffffffffffffffffffffffffffffffffffffff161480610a0d5750610a0c81610a07612145565b611e6c565b5b610a4c576040517f08c379a0000000000000000000000000000000000000000000000000000000008152600401610a43906141c0565b60405180910390fd5b610a56838361214d565b505050565b610a6c610a66612145565b82612206565b610aab576040517f08c379a0000000000000000000000000000000000000000000000000000000008152600401610aa290614252565b60405180910390fd5b610ab683838361229b565b505050565b610ac3612594565b6000600f60003373ffffffffffffffffffffffffffffffffffffffff1673ffffffffffffffffffffffffffffffffffffffff16815260200190815260200160002054905060008111610b4a576040517f08c379a0000000000000000000000000000000000000000000000000000000008152600401610b41906142be565b60405180910390fd5b6000600f60003373ffffffffffffffffffffffffffffffffffffffff1673ffffffffffffffffffffffffffffffffffffffff168152602001908152602001600020819055503373ffffffffffffffffffffffffffffffffffffffff166108fc829081150290604051600060405180830381858888f19350505050158015610bd5573d6000803e3d6000fd5b503373ffffffffffffffffffffffffffffffffffffffff167f957727802c31109adcff14fcfbd2dc576e9bfd4d6385ddd160fe42832a4555fe82604051610c1c9190613b60565b60405180910390a250610c2d6125e3565b565b6000806000600160008681526020019081526020016000206040518060400160405290816000820160009054906101000a900473ffffffffffffffffffffffffffffffffffffffff1673ffffffffffffffffffffffffffffffffffffffff1673ffffffffffffffffffffffffffffffffffffffff1681526020016000820160149054906101000a90046bffffffffffffffffffffffff166bffffffffffffffffffffffff166bffffffffffffffffffffffff16815250509050600073ffffffffffffffffffffffffffffffffffffffff16816000015173ffffffffffffffffffffffffffffffffffffffff1603610dc45760006040518060400160405290816000820160009054906101000a900473ffffffffffffffffffffffffffffffffffffffff1673ffffffffffffffffffffffffffffffffffffffff1673ffffffffffffffffffffffffffffffffffffffff1681526020016000820160149054906101000a90046bffffffffffffffffffffffff166bffffffffffffffffffffffff166bffffffffffffffffffffffff168152505090505b6000610dce6125ed565b6bffffffffffffffffffffffff1682602001516bffffffffffffffffffffffff1686610dfa919061430d565b610e04919061437e565b90508160000151819350935050509250929050565b60fa81565b610e266125f7565b610e2e612675565b565b610e4b83838360405180602001604052806000815250611cbb565b505050565b610e58612594565b610e606126d8565b806010600082815260200190815260200160002060009054906101000a900460ff1615610ec2576040517f08c379a0000000000000000000000000000000000000000000000000000000008152600401610eb9906143fb565b60405180910390fd5b6000600c60008481526020019081526020016000206040518060800160405290816000820160009054906101000a900473ffffffffffffffffffffffffffffffffffffffff1673ffffffffffffffffffffffffffffffffffffffff1673ffffffffffffffffffffffffffffffffffffffff16815260200160018201548152602001600282015481526020016003820160009054906101000a900460ff16151515158152505090508060600151610fad576040517f08c379a0000000000000000000000000000000000000000000000000000000008152600401610fa490614467565b60405180910390fd5b8060200151341015610ff4576040517f08c379a0000000000000000000000000000000000000000000000000000000008152600401610feb906144d3565b60405180910390fd5b600081600001519050600082602001519050600061271060fa83611018919061430d565b611022919061437e565b90506000806110318885610c2f565b91509150600081848661104491906144f3565b61104e91906144f3565b9050601160009054906101000a900473ffffffffffffffffffffffffffffffffffffffff1673ffffffffffffffffffffffffffffffffffffffff166108fc859081150290604051600060405180830381858888f193505050501580156110b8573d6000803e3d6000fd5b5060008211156111195781600f60008573ffffffffffffffffffffffffffffffffffffffff1673ffffffffffffffffffffffffffffffffffffffff16815260200190815260200160002060008282546111119190614527565b925050819055505b8573ffffffffffffffffffffffffffffffffffffffff166108fc829081150290604051600060405180830381858888f1935050505015801561115f573d6000803e3d6000fd5b5061116b86338b61229b565b600c60008a8152602001908152602001600020600080820160006101000a81549073ffffffffffffffffffffffffffffffffffffffff0219169055600182016000905560028201600090556003820160006101000a81549060ff021916905550503373ffffffffffffffffffffffffffffffffffffffff168673ffffffffffffffffffffffffffffffffffffffff168a7f8562eb94748e30bb0071e932744ce902b460c683474fcb3bfd567ffa16b1afb28860405161122a9190613b60565b60405180910390a450505050505050506112426125e3565b50565b6000600a60149054906101000a900460ff16905090565b60008061126883612722565b9050600073ffffffffffffffffffffffffffffffffffffffff168173ffffffffffffffffffffffffffffffffffffffff16036112d9576040517f08c379a00000000000000000000000000000000000000000000000000000000081526004016112d0906145a7565b60405180910390fd5b80915050919050565b60008073ffffffffffffffffffffffffffffffffffffffff168273ffffffffffffffffffffffffffffffffffffffff1603611352576040517f08c379a000000000000000000000000000000000000000000000000000000000815260040161134990614639565b60405180910390fd5b600560008373ffffffffffffffffffffffffffffffffffffffff1673ffffffffffffffffffffffffffffffffffffffff168152602001908152602001600020549050919050565b6113a16125f7565b6113ab600061275f565b565b6113b56125f7565b6113bd612825565b565b6113c76125f7565b600073ffffffffffffffffffffffffffffffffffffffff168173ffffffffffffffffffffffffffffffffffffffff1603611436576040517f08c379a000000000000000000000000000000000000000000000000000000000815260040161142d906146a5565b60405180910390fd5b80601160006101000a81548173ffffffffffffffffffffffffffffffffffffffff021916908373ffffffffffffffffffffffffffffffffffffffff16021790555050565b6000600a60009054906101000a900473ffffffffffffffffffffffffffffffffffffffff16905090565b6114ac612594565b6114b46126d8565b816010600082815260200190815260200160002060009054906101000a900460ff1615611516576040517f08c379a000000000000000000000000000000000000000000000000000000000815260040161150d906143fb565b60405180910390fd5b600082118015611528575061016d8211155b611567576040517f08c379a000000000000000000000000000000000000000000000000000000000815260040161155e90614711565b60405180910390fd5b6000600c60008581526020019081526020016000206040518060800160405290816000820160009054906101000a900473ffffffffffffffffffffffffffffffffffffffff1673ffffffffffffffffffffffffffffffffffffffff1673ffffffffffffffffffffffffffffffffffffffff16815260200160018201548152602001600282015481526020016003820160009054906101000a900460ff16151515158152505090506000816040015111611655576040517f08c379a000000000000000000000000000000000000000000000000000000000815260040161164c9061477d565b60405180910390fd5b600d600085815260200190815260200160002060020160009054906101000a900460ff16156116b9576040517f08c379a00000000000000000000000000000000000000000000000000000000081526004016116b0906147e9565b60405180910390fd5b60008382604001516116cb919061430d565b905080341015611710576040517f08c379a0000000000000000000000000000000000000000000000000000000008152600401611707906144d3565b60405180910390fd5b600061271060fa83611722919061430d565b61172c919061437e565b90506000818361173c91906144f3565b9050601160009054906101000a900473ffffffffffffffffffffffffffffffffffffffff1673ffffffffffffffffffffffffffffffffffffffff166108fc839081150290604051600060405180830381858888f193505050501580156117a6573d6000803e3d6000fd5b506117b08761125c565b73ffffffffffffffffffffffffffffffffffffffff166108fc829081150290604051600060405180830381858888f193505050501580156117f5573d6000803e3d6000fd5b5060405180606001604052803373ffffffffffffffffffffffffffffffffffffffff168152602001620151808861182c919061430d565b426118379190614527565b815260200160011515815250600d600089815260200190815260200160002060008201518160000160006101000a81548173ffffffffffffffffffffffffffffffffffffffff021916908373ffffffffffffffffffffffffffffffffffffffff1602179055506020820151816001015560408201518160020160006101000a81548160ff0219169083151502179055509050503373ffffffffffffffffffffffffffffffffffffffff16877f0c12a4dfd383a56a1d4e17ab3bf33925e4f1f4cd331d2cda7b3134c931eb7a98886040516119119190613b60565b60405180910390a350505050506119266125e3565b5050565b6060600380546119399061408b565b80601f01602080910402602001604051908101604052809291908181526020018280546119659061408b565b80156119b25780601f10611987576101008083540402835291602001916119b2565b820191906000526020600020905b81548152906001019060200180831161199557829003601f168201915b5050505050905090565b6119ce6119c7612145565b8383612888565b5050565b600d6020528060005260406000206000915090508060000160009054906101000a900473ffffffffffffffffffffffffffffffffffffffff16908060010154908060020160009054906101000a900460ff16905083565b611a316126d8565b826010600082815260200190815260200160002060009054906101000a900460ff1615611a93576040517f08c379a0000000000000000000000000000000000000000000000000000000008152600401611a8a906143fb565b60405180910390fd5b3373ffffffffffffffffffffffffffffffffffffffff16611ab38561125c565b73ffffffffffffffffffffffffffffffffffffffff1614611b09576040517f08c379a0000000000000000000000000000000000000000000000000000000008152600401611b0090614855565b60405180910390fd5b600d600085815260200190815260200160002060020160009054906101000a900460ff1615611b6d576040517f08c379a0000000000000000000000000000000000000000000000000000000008152600401611b64906148c1565b60405180910390fd5b60008311611bb0576040517f08c379a0000000000000000000000000000000000000000000000000000000008152600401611ba79061492d565b60405180910390fd5b60405180608001604052803373ffffffffffffffffffffffffffffffffffffffff16815260200184815260200183815260200160011515815250600c600086815260200190815260200160002060008201518160000160006101000a81548173ffffffffffffffffffffffffffffffffffffffff021916908373ffffffffffffffffffffffffffffffffffffffff160217905550602082015181600101556040820151816002015560608201518160030160006101000a81548160ff021916908315150217905550905050837fcc0c9a64fc84375ceec206f2fc87eb06d3cacae06967a94d2ba499000ea176178484604051611cad92919061494d565b60405180910390a250505050565b611ccc611cc6612145565b83612206565b611d0b576040517f08c379a0000000000000000000000000000000000000000000000000000000008152600401611d0290614252565b60405180910390fd5b611d17848484846129f4565b50505050565b6060611d2882612a50565b9050919050565b600e6020528060005260406000206000915054906101000a900473ffffffffffffffffffffffffffffffffffffffff1681565b6103e881565b600c6020528060005260406000206000915090508060000160009054906101000a900473ffffffffffffffffffffffffffffffffffffffff16908060010154908060020154908060030160009054906101000a900460ff16905084565b60106020528060005260406000206000915054906101000a900460ff1681565b600f6020528060005260406000206000915090505481565b611e056125f7565b806010600084815260200190815260200160002060006101000a81548160ff021916908315150217905550817f58d9f8973124d959b72fcdfaa4b86d50fe32d266399ceffcbcfb45794ecadec782604051611e60919061389d565b60405180910390a25050565b6000600760008473ffffffffffffffffffffffffffffffffffffffff1673ffffffffffffffffffffffffffffffffffffffff16815260200190815260200160002060008373ffffffffffffffffffffffffffffffffffffffff1673ffffffffffffffffffffffffffffffffffffffff16815260200190815260200160002060009054906101000a900460ff16905092915050565b611f086125f7565b600073ffffffffffffffffffffffffffffffffffffffff168173ffffffffffffffffffffffffffffffffffffffff1603611f77576040517f08c379a0000000000000000000000000000000000000000000000000000000008152600401611f6e906149e8565b60405180910390fd5b611f808161275f565b50565b6000611f8d6126d8565b6103e8826bffffffffffffffffffffffff161115611fe0576040517f08c379a0000000000000000000000000000000000000000000000000000000008152600401611fd790614a54565b60405180910390fd5b611fea600b612b62565b6000611ff6600b612b78565b90506120023382612b86565b61200c8185612ba4565b612017813385612c48565b33600e600083815260200190815260200160002060006101000a81548173ffffffffffffffffffffffffffffffffffffffff021916908373ffffffffffffffffffffffffffffffffffffffff1602179055503373ffffffffffffffffffffffffffffffffffffffff16817f06becd955c918828f6e985541acbf49cc842c9e9bd569fffc7698e721ef13575866040516120b09190613948565b60405180910390a38091505092915050565b601160009054906101000a900473ffffffffffffffffffffffffffffffffffffffff1681565b60006120f382612def565b9050919050565b61210381612e50565b612142576040517f08c379a0000000000000000000000000000000000000000000000000000000008152600401612139906145a7565b60405180910390fd5b50565b600033905090565b816006600083815260200190815260200160002060006101000a81548173ffffffffffffffffffffffffffffffffffffffff021916908373ffffffffffffffffffffffffffffffffffffffff160217905550808273ffffffffffffffffffffffffffffffffffffffff166121c08361125c565b73ffffffffffffffffffffffffffffffffffffffff167f8c5be1e5ebec7d5bd14f71427d1e84f3dd0314c0f7b2291e5b200ac8c7c3b92560405160405180910390a45050565b6000806122128361125c565b90508073ffffffffffffffffffffffffffffffffffffffff168473ffffffffffffffffffffffffffffffffffffffff16148061225457506122538185611e6c565b5b8061229257508373ffffffffffffffffffffffffffffffffffffffff1661227a846108fe565b73ffffffffffffffffffffffffffffffffffffffff16145b91505092915050565b8273ffffffffffffffffffffffffffffffffffffffff166122bb8261125c565b73ffffffffffffffffffffffffffffffffffffffff1614612311576040517f08c379a000000000000000000000000000000000000000000000000000000000815260040161230890614ae6565b60405180910390fd5b600073ffffffffffffffffffffffffffffffffffffffff168273ffffffffffffffffffffffffffffffffffffffff1603612380576040517f08c379a000000000000000000000000000000000000000000000000000000000815260040161237790614b78565b60405180910390fd5b61238d8383836001612e91565b8273ffffffffffffffffffffffffffffffffffffffff166123ad8261125c565b73ffffffffffffffffffffffffffffffffffffffff1614612403576040517f08c379a00000000000000000000000000000000000000000000000000000000081526004016123fa90614ae6565b60405180910390fd5b6006600082815260200190815260200160002060006101000a81549073ffffffffffffffffffffffffffffffffffffffff02191690556001600560008573ffffffffffffffffffffffffffffffffffffffff1673ffffffffffffffffffffffffffffffffffffffff168152602001908152602001600020600082825403925050819055506001600560008473ffffffffffffffffffffffffffffffffffffffff1673ffffffffffffffffffffffffffffffffffffffff16815260200190815260200160002060008282540192505081905550816004600083815260200190815260200160002060006101000a81548173ffffffffffffffffffffffffffffffffffffffff021916908373ffffffffffffffffffffffffffffffffffffffff160217905550808273ffffffffffffffffffffffffffffffffffffffff168473ffffffffffffffffffffffffffffffffffffffff167fddf252ad1be2c89b69c2b068fc378daa952ba7f163c4a11628f55a4df523b3ef60405160405180910390a461258f8383836001612f0c565b505050565b6002600954036125d9576040517f08c379a00000000000000000000000000000000000000000000000000000000081526004016125d090614be4565b60405180910390fd5b6002600981905550565b6001600981905550565b6000612710905090565b6125ff612145565b73ffffffffffffffffffffffffffffffffffffffff1661261d61147a565b73ffffffffffffffffffffffffffffffffffffffff1614612673576040517f08c379a000000000000000000000000000000000000000000000000000000000815260040161266a90614c50565b60405180910390fd5b565b61267d612f12565b6000600a60146101000a81548160ff0219169083151502179055507f5db9ee0a495bf2e6ff9c91a7834c1ba4fdd244a5e8aa4e537bd38aeae4b073aa6126c1612145565b6040516126ce9190613a0e565b60405180910390a1565b6126e0611245565b15612720576040517f08c379a000000000000000000000000000000000000000000000000000000000815260040161271790614cbc565b60405180910390fd5b565b60006004600083815260200190815260200160002060009054906101000a900473ffffffffffffffffffffffffffffffffffffffff169050919050565b6000600a60009054906101000a900473ffffffffffffffffffffffffffffffffffffffff16905081600a60006101000a81548173ffffffffffffffffffffffffffffffffffffffff021916908373ffffffffffffffffffffffffffffffffffffffff1602179055508173ffffffffffffffffffffffffffffffffffffffff168173ffffffffffffffffffffffffffffffffffffffff167f8be0079c531659141344cd1fd0a4f28419497f9722a3daafe3b4186f6b6457e060405160405180910390a35050565b61282d6126d8565b6001600a60146101000a81548160ff0219169083151502179055507f62e78cea01bee320cd4e420270b5ea74000d11b0c9f74754ebdbfc544b05a258612871612145565b60405161287e9190613a0e565b60405180910390a1565b8173ffffffffffffffffffffffffffffffffffffffff168373ffffffffffffffffffffffffffffffffffffffff16036128f6576040517f08c379a00000000000000000000000000000000000000000000000000000000081526004016128ed90614d28565b60405180910390fd5b80600760008573ffffffffffffffffffffffffffffffffffffffff1673ffffffffffffffffffffffffffffffffffffffff16815260200190815260200160002060008473ffffffffffffffffffffffffffffffffffffffff1673ffffffffffffffffffffffffffffffffffffffff16815260200190815260200160002060006101000a81548160ff0219169083151502179055508173ffffffffffffffffffffffffffffffffffffffff168373ffffffffffffffffffffffffffffffffffffffff167f17307eab39ab6107e8899845ad3d59bd9653f200f220920489ca2b5937696c31836040516129e7919061389d565b60405180910390a3505050565b6129ff84848461229b565b612a0b84848484612f5b565b612a4a576040517f08c379a0000000000000000000000000000000000000000000000000000000008152600401612a4190614dba565b60405180910390fd5b50505050565b6060612a5b826120fa565b6000600860008481526020019081526020016000208054612a7b9061408b565b80601f0160208091040260200160405190810160405280929190818152602001828054612aa79061408b565b8015612af45780601f10612ac957610100808354040283529160200191612af4565b820191906000526020600020905b815481529060010190602001808311612ad757829003601f168201915b505050505090506000612b056130e2565b90506000815103612b1a578192505050612b5d565b600082511115612b4f578082604051602001612b37929190614e16565b60405160208183030381529060405292505050612b5d565b612b58846130f9565b925050505b919050565b6001816000016000828254019250508190555050565b600081600001549050919050565b612ba0828260405180602001604052806000815250613161565b5050565b612bad82612e50565b612bec576040517f08c379a0000000000000000000000000000000000000000000000000000000008152600401612be390614eac565b60405180910390fd5b80600860008481526020019081526020016000209081612c0c9190615078565b507ff8e1a15aba9398e019f0b49df1a4fde98ee17ae345cb5f6b5e2c27f5033e8ce782604051612c3c9190613b60565b60405180910390a15050565b612c506125ed565b6bffffffffffffffffffffffff16816bffffffffffffffffffffffff161115612cae576040517f08c379a0000000000000000000000000000000000000000000000000000000008152600401612ca5906151bc565b60405180910390fd5b600073ffffffffffffffffffffffffffffffffffffffff168273ffffffffffffffffffffffffffffffffffffffff1603612d1d576040517f08c379a0000000000000000000000000000000000000000000000000000000008152600401612d1490615228565b60405180910390fd5b60405180604001604052808373ffffffffffffffffffffffffffffffffffffffff168152602001826bffffffffffffffffffffffff168152506001600085815260200190815260200160002060008201518160000160006101000a81548173ffffffffffffffffffffffffffffffffffffffff021916908373ffffffffffffffffffffffffffffffffffffffff16021790555060208201518160000160146101000a8154816bffffffffffffffffffffffff02191690836bffffffffffffffffffffffff160217905550905050505050565b6000634906490660e01b7bffffffffffffffffffffffffffffffffffffffffffffffffffffffff1916827bffffffffffffffffffffffffffffffffffffffffffffffffffffffff19161480612e495750612e48826131bc565b5b9050919050565b60008073ffffffffffffffffffffffffffffffffffffffff16612e7283612722565b73ffffffffffffffffffffffffffffffffffffffff1614159050919050565b612e996126d8565b6010600083815260200190815260200160002060009054906101000a900460ff1615612efa576040517f08c379a0000000000000000000000000000000000000000000000000000000008152600401612ef1906143fb565b60405180910390fd5b612f068484848461329e565b50505050565b50505050565b612f1a611245565b612f59576040517f08c379a0000000000000000000000000000000000000000000000000000000008152600401612f5090615294565b60405180910390fd5b565b6000612f7c8473ffffffffffffffffffffffffffffffffffffffff166132a4565b156130d5578373ffffffffffffffffffffffffffffffffffffffff1663150b7a02612fa5612145565b8786866040518563ffffffff1660e01b8152600401612fc79493929190615309565b6020604051808303816000875af192505050801561300357506040513d601f19601f82011682018060405250810190613000919061536a565b60015b613085573d8060008114613033576040519150601f19603f3d011682016040523d82523d6000602084013e613038565b606091505b50600081510361307d576040517f08c379a000000000000000000000000000000000000000000000000000000000815260040161307490614dba565b60405180910390fd5b805181602001fd5b63150b7a0260e01b7bffffffffffffffffffffffffffffffffffffffffffffffffffffffff1916817bffffffffffffffffffffffffffffffffffffffffffffffffffffffff1916149150506130da565b600190505b949350505050565b606060405180602001604052806000815250905090565b6060613104826120fa565b600061310e6130e2565b9050600081511161312e5760405180602001604052806000815250613159565b80613138846132c7565b604051602001613149929190614e16565b6040516020818303038152906040525b915050919050565b61316b8383613395565b6131786000848484612f5b565b6131b7576040517f08c379a00000000000000000000000000000000000000000000000000000000081526004016131ae90614dba565b60405180910390fd5b505050565b60007f80ac58cd000000000000000000000000000000000000000000000000000000007bffffffffffffffffffffffffffffffffffffffffffffffffffffffff1916827bffffffffffffffffffffffffffffffffffffffffffffffffffffffff1916148061328757507f5b5e139f000000000000000000000000000000000000000000000000000000007bffffffffffffffffffffffffffffffffffffffffffffffffffffffff1916827bffffffffffffffffffffffffffffffffffffffffffffffffffffffff1916145b806132975750613296826135b2565b5b9050919050565b50505050565b6000808273ffffffffffffffffffffffffffffffffffffffff163b119050919050565b6060600060016132d68461362c565b01905060008167ffffffffffffffff8111156132f5576132f4613ca8565b5b6040519080825280601f01601f1916602001820160405280156133275781602001600182028036833780820191505090505b509050600082602001820190505b60011561338a578080600190039150507f3031323334353637383961626364656600000000000000000000000000000000600a86061a8153600a858161337e5761337d61434f565b5b04945060008503613335575b819350505050919050565b600073ffffffffffffffffffffffffffffffffffffffff168273ffffffffffffffffffffffffffffffffffffffff1603613404576040517f08c379a00000000000000000000000000000000000000000000000000000000081526004016133fb906153e3565b60405180910390fd5b61340d81612e50565b1561344d576040517f08c379a00000000000000000000000000000000000000000000000000000000081526004016134449061544f565b60405180910390fd5b61345b600083836001612e91565b61346481612e50565b156134a4576040517f08c379a000000000000000000000000000000000000000000000000000000000815260040161349b9061544f565b60405180910390fd5b6001600560008473ffffffffffffffffffffffffffffffffffffffff1673ffffffffffffffffffffffffffffffffffffffff16815260200190815260200160002060008282540192505081905550816004600083815260200190815260200160002060006101000a81548173ffffffffffffffffffffffffffffffffffffffff021916908373ffffffffffffffffffffffffffffffffffffffff160217905550808273ffffffffffffffffffffffffffffffffffffffff16600073ffffffffffffffffffffffffffffffffffffffff167fddf252ad1be2c89b69c2b068fc378daa952ba7f163c4a11628f55a4df523b3ef60405160405180910390a46135ae600083836001612f0c565b5050565b60007f2a55205a000000000000000000000000000000000000000000000000000000007bffffffffffffffffffffffffffffffffffffffffffffffffffffffff1916827bffffffffffffffffffffffffffffffffffffffffffffffffffffffff1916148061362557506136248261377f565b5b9050919050565b600080600090507a184f03e93ff9f4daa797ed6e38ed64bf6a1f010000000000000000831061368a577a184f03e93ff9f4daa797ed6e38ed64bf6a1f01000000000000000083816136805761367f61434f565b5b0492506040810190505b6d04ee2d6d415b85acef810000000083106136c7576d04ee2d6d415b85acef810000000083816136bd576136bc61434f565b5b0492506020810190505b662386f26fc1000083106136f657662386f26fc1000083816136ec576136eb61434f565b5b0492506010810190505b6305f5e100831061371f576305f5e10083816137155761371461434f565b5b0492506008810190505b612710831061374457612710838161373a5761373961434f565b5b0492506004810190505b60648310613767576064838161375d5761375c61434f565b5b0492506002810190505b600a8310613776576001810190505b80915050919050565b60007f01ffc9a7000000000000000000000000000000000000000000000000000000007bffffffffffffffffffffffffffffffffffffffffffffffffffffffff1916827bffffffffffffffffffffffffffffffffffffffffffffffffffffffff1916149050919050565b6000604051905090565b600080fd5b600080fd5b60007fffffffff0000000000000000000000000000000000000000000000000000000082169050919050565b613832816137fd565b811461383d57600080fd5b50565b60008135905061384f81613829565b92915050565b60006020828403121561386b5761386a6137f3565b5b600061387984828501613840565b91505092915050565b60008115159050919050565b61389781613882565b82525050565b60006020820190506138b2600083018461388e565b92915050565b600081519050919050565b600082825260208201905092915050565b60005b838110156138f25780820151818401526020810190506138d7565b60008484015250505050565b6000601f19601f8301169050919050565b600061391a826138b8565b61392481856138c3565b93506139348185602086016138d4565b61393d816138fe565b840191505092915050565b60006020820190508181036000830152613962818461390f565b905092915050565b6000819050919050565b61397d8161396a565b811461398857600080fd5b50565b60008135905061399a81613974565b92915050565b6000602082840312156139b6576139b56137f3565b5b60006139c48482850161398b565b91505092915050565b600073ffffffffffffffffffffffffffffffffffffffff82169050919050565b60006139f8826139cd565b9050919050565b613a08816139ed565b82525050565b6000602082019050613a2360008301846139ff565b92915050565b613a32816139ed565b8114613a3d57600080fd5b50565b600081359050613a4f81613a29565b92915050565b60008060408385031215613a6c57613a6b6137f3565b5b6000613a7a85828601613a40565b9250506020613a8b8582860161398b565b9150509250929050565b600080600060608486031215613aae57613aad6137f3565b5b6000613abc86828701613a40565b9350506020613acd86828701613a40565b9250506040613ade8682870161398b565b9150509250925092565b60008060408385031215613aff57613afe6137f3565b5b6000613b0d8582860161398b565b9250506020613b1e8582860161398b565b9150509250929050565b613b318161396a565b82525050565b6000604082019050613b4c60008301856139ff565b613b596020830184613b28565b9392505050565b6000602082019050613b756000830184613b28565b92915050565b600060208284031215613b9157613b906137f3565b5b6000613b9f84828501613a40565b91505092915050565b613bb181613882565b8114613bbc57600080fd5b50565b600081359050613bce81613ba8565b92915050565b60008060408385031215613beb57613bea6137f3565b5b6000613bf985828601613a40565b9250506020613c0a85828601613bbf565b9150509250929050565b6000606082019050613c2960008301866139ff565b613c366020830185613b28565b613c43604083018461388e565b949350505050565b600080600060608486031215613c6457613c636137f3565b5b6000613c728682870161398b565b9350506020613c838682870161398b565b9250506040613c948682870161398b565b9150509250925092565b600080fd5b600080fd5b7f4e487b7100000000000000000000000000000000000000000000000000000000600052604160045260246000fd5b613ce0826138fe565b810181811067ffffffffffffffff82111715613cff57613cfe613ca8565b5b80604052505050565b6000613d126137e9565b9050613d1e8282613cd7565b919050565b600067ffffffffffffffff821115613d3e57613d3d613ca8565b5b613d47826138fe565b9050602081019050919050565b82818337600083830152505050565b6000613d76613d7184613d23565b613d08565b905082815260208101848484011115613d9257613d91613ca3565b5b613d9d848285613d54565b509392505050565b600082601f830112613dba57613db9613c9e565b5b8135613dca848260208601613d63565b91505092915050565b60008060008060808587031215613ded57613dec6137f3565b5b6000613dfb87828801613a40565b9450506020613e0c87828801613a40565b9350506040613e1d8782880161398b565b925050606085013567ffffffffffffffff811115613e3e57613e3d6137f8565b5b613e4a87828801613da5565b91505092959194509250565b6000608082019050613e6b60008301876139ff565b613e786020830186613b28565b613e856040830185613b28565b613e92606083018461388e565b95945050505050565b60008060408385031215613eb257613eb16137f3565b5b6000613ec08582860161398b565b9250506020613ed185828601613bbf565b9150509250929050565b60008060408385031215613ef257613ef16137f3565b5b6000613f0085828601613a40565b9250506020613f1185828601613a40565b9150509250929050565b600067ffffffffffffffff821115613f3657613f35613ca8565b5b613f3f826138fe565b9050602081019050919050565b6000613f5f613f5a84613f1b565b613d08565b905082815260208101848484011115613f7b57613f7a613ca3565b5b613f86848285613d54565b509392505050565b600082601f830112613fa357613fa2613c9e565b5b8135613fb3848260208601613f4c565b91505092915050565b60006bffffffffffffffffffffffff82169050919050565b613fdd81613fbc565b8114613fe857600080fd5b50565b600081359050613ffa81613fd4565b92915050565b60008060408385031215614017576140166137f3565b5b600083013567ffffffffffffffff811115614035576140346137f8565b5b61404185828601613f8e565b925050602061405285828601613feb565b9150509250929050565b7f4e487b7100000000000000000000000000000000000000000000000000000000600052602260045260246000fd5b600060028204905060018216806140a357607f821691505b6020821081036140b6576140b561405c565b5b50919050565b7f4552433732313a20617070726f76616c20746f2063757272656e74206f776e6560008201527f7200000000000000000000000000000000000000000000000000000000000000602082015250565b60006141186021836138c3565b9150614123826140bc565b604082019050919050565b600060208201905081810360008301526141478161410b565b9050919050565b7f4552433732313a20617070726f76652063616c6c6572206973206e6f7420746f60008201527f6b656e206f776e6572206f7220617070726f76656420666f7220616c6c000000602082015250565b60006141aa603d836138c3565b91506141b58261414e565b604082019050919050565b600060208201905081810360008301526141d98161419d565b9050919050565b7f4552433732313a2063616c6c6572206973206e6f7420746f6b656e206f776e6560008201527f72206f7220617070726f76656400000000000000000000000000000000000000602082015250565b600061423c602d836138c3565b9150614247826141e0565b604082019050919050565b6000602082019050818103600083015261426b8161422f565b9050919050565b7f4e6f2062616c616e636520746f20776974686472617700000000000000000000600082015250565b60006142a86016836138c3565b91506142b382614272565b602082019050919050565b600060208201905081810360008301526142d78161429b565b9050919050565b7f4e487b7100000000000000000000000000000000000000000000000000000000600052601160045260246000fd5b60006143188261396a565b91506143238361396a565b92508282026143318161396a565b91508282048414831517614348576143476142de565b5b5092915050565b7f4e487b7100000000000000000000000000000000000000000000000000000000600052601260045260246000fd5b60006143898261396a565b91506143948361396a565b9250826143a4576143a361434f565b5b828204905092915050565b7f546f6b656e20697320626c61636b6c6973746564000000000000000000000000600082015250565b60006143e56014836138c3565b91506143f0826143af565b602082019050919050565b60006020820190508181036000830152614414816143d8565b9050919050565b7f4e4654206e6f74206c697374656420666f722073616c65000000000000000000600082015250565b60006144516017836138c3565b915061445c8261441b565b602082019050919050565b6000602082019050818103600083015261448081614444565b9050919050565b7f496e73756666696369656e74207061796d656e74000000000000000000000000600082015250565b60006144bd6014836138c3565b91506144c882614487565b602082019050919050565b600060208201905081810360008301526144ec816144b0565b9050919050565b60006144fe8261396a565b91506145098361396a565b9250828203905081811115614521576145206142de565b5b92915050565b60006145328261396a565b915061453d8361396a565b9250828201905080821115614555576145546142de565b5b92915050565b7f4552433732313a20696e76616c696420746f6b656e2049440000000000000000600082015250565b60006145916018836138c3565b915061459c8261455b565b602082019050919050565b600060208201905081810360008301526145c081614584565b9050919050565b7f4552433732313a2061646472657373207a65726f206973206e6f74206120766160008201527f6c6964206f776e65720000000000000000000000000000000000000000000000602082015250565b60006146236029836138c3565b915061462e826145c7565b604082019050919050565b6000602082019050818103600083015261465281614616565b9050919050565b7f496e76616c696420616464726573730000000000000000000000000000000000600082015250565b600061468f600f836138c3565b915061469a82614659565b602082019050919050565b600060208201905081810360008301526146be81614682565b9050919050565b7f496e76616c6964206475726174696f6e00000000000000000000000000000000600082015250565b60006146fb6010836138c3565b9150614706826146c5565b602082019050919050565b6000602082019050818103600083015261472a816146ee565b9050919050565b7f4e4654206e6f7420617661696c61626c6520666f722072656e74000000000000600082015250565b6000614767601a836138c3565b915061477282614731565b602082019050919050565b600060208201905081810360008301526147968161475a565b9050919050565b7f4e465420616c72656164792072656e7465640000000000000000000000000000600082015250565b60006147d36012836138c3565b91506147de8261479d565b602082019050919050565b60006020820190508181036000830152614802816147c6565b9050919050565b7f4e6f7420746865206f776e657200000000000000000000000000000000000000600082015250565b600061483f600d836138c3565b915061484a82614809565b602082019050919050565b6000602082019050818103600083015261486e81614832565b9050919050565b7f4e46542069732063757272656e746c792072656e746564000000000000000000600082015250565b60006148ab6017836138c3565b91506148b682614875565b602082019050919050565b600060208201905081810360008301526148da8161489e565b9050919050565b7f5072696365206d7573742062652067726561746572207468616e203000000000600082015250565b6000614917601c836138c3565b9150614922826148e1565b602082019050919050565b600060208201905081810360008301526149468161490a565b9050919050565b60006040820190506149626000830185613b28565b61496f6020830184613b28565b9392505050565b7f4f776e61626c653a206e6577206f776e657220697320746865207a65726f206160008201527f6464726573730000000000000000000000000000000000000000000000000000602082015250565b60006149d26026836138c3565b91506149dd82614976565b604082019050919050565b60006020820190508181036000830152614a01816149c5565b9050919050565b7f526f79616c747920746f6f206869676800000000000000000000000000000000600082015250565b6000614a3e6010836138c3565b9150614a4982614a08565b602082019050919050565b60006020820190508181036000830152614a6d81614a31565b9050919050565b7f4552433732313a207472616e736665722066726f6d20696e636f72726563742060008201527f6f776e6572000000000000000000000000000000000000000000000000000000602082015250565b6000614ad06025836138c3565b9150614adb82614a74565b604082019050919050565b60006020820190508181036000830152614aff81614ac3565b9050919050565b7f4552433732313a207472616e7366657220746f20746865207a65726f2061646460008201527f7265737300000000000000000000000000000000000000000000000000000000602082015250565b6000614b626024836138c3565b9150614b6d82614b06565b604082019050919050565b60006020820190508181036000830152614b9181614b55565b9050919050565b7f5265656e7472616e637947756172643a207265656e7472616e742063616c6c00600082015250565b6000614bce601f836138c3565b9150614bd982614b98565b602082019050919050565b60006020820190508181036000830152614bfd81614bc1565b9050919050565b7f4f776e61626c653a2063616c6c6572206973206e6f7420746865206f776e6572600082015250565b6000614c3a6020836138c3565b9150614c4582614c04565b602082019050919050565b60006020820190508181036000830152614c6981614c2d565b9050919050565b7f5061757361626c653a2070617573656400000000000000000000000000000000600082015250565b6000614ca66010836138c3565b9150614cb182614c70565b602082019050919050565b60006020820190508181036000830152614cd581614c99565b9050919050565b7f4552433732313a20617070726f766520746f2063616c6c657200000000000000600082015250565b6000614d126019836138c3565b9150614d1d82614cdc565b602082019050919050565b60006020820190508181036000830152614d4181614d05565b9050919050565b7f4552433732313a207472616e7366657220746f206e6f6e20455243373231526560008201527f63656976657220696d706c656d656e7465720000000000000000000000000000602082015250565b6000614da46032836138c3565b9150614daf82614d48565b604082019050919050565b60006020820190508181036000830152614dd381614d97565b9050919050565b600081905092915050565b6000614df0826138b8565b614dfa8185614dda565b9350614e0a8185602086016138d4565b80840191505092915050565b6000614e228285614de5565b9150614e2e8284614de5565b91508190509392505050565b7f45524337323155524953746f726167653a2055524920736574206f66206e6f6e60008201527f6578697374656e7420746f6b656e000000000000000000000000000000000000602082015250565b6000614e96602e836138c3565b9150614ea182614e3a565b604082019050919050565b60006020820190508181036000830152614ec581614e89565b9050919050565b60008190508160005260206000209050919050565b60006020601f8301049050919050565b600082821b905092915050565b600060088302614f2e7fffffffffffffffffffffffffffffffffffffffffffffffffffffffffffffffff82614ef1565b614f388683614ef1565b95508019841693508086168417925050509392505050565b6000819050919050565b6000614f75614f70614f6b8461396a565b614f50565b61396a565b9050919050565b6000819050919050565b614f8f83614f5a565b614fa3614f9b82614f7c565b848454614efe565b825550505050565b600090565b614fb8614fab565b614fc3818484614f86565b505050565b5b81811015614fe757614fdc600082614fb0565b600181019050614fc9565b5050565b601f82111561502c57614ffd81614ecc565b61500684614ee1565b81016020851015615015578190505b61502961502185614ee1565b830182614fc8565b50505b505050565b600082821c905092915050565b600061504f60001984600802615031565b1980831691505092915050565b6000615068838361503e565b9150826002028217905092915050565b615081826138b8565b67ffffffffffffffff81111561509a57615099613ca8565b5b6150a4825461408b565b6150af828285614feb565b600060209050601f8311600181146150e257600084156150d0578287015190505b6150da858261505c565b865550615142565b601f1984166150f086614ecc565b60005b82811015615118578489015182556001820191506020850194506020810190506150f3565b868310156151355784890151615131601f89168261503e565b8355505b6001600288020188555050505b505050505050565b7f455243323938313a20726f79616c7479206665652077696c6c2065786365656460008201527f2073616c65507269636500000000000000000000000000000000000000000000602082015250565b60006151a6602a836138c3565b91506151b18261514a565b604082019050919050565b600060208201905081810360008301526151d581615199565b9050919050565b7f455243323938313a20496e76616c696420706172616d65746572730000000000600082015250565b6000615212601b836138c3565b915061521d826151dc565b602082019050919050565b6000602082019050818103600083015261524181615205565b9050919050565b7f5061757361626c653a206e6f7420706175736564000000000000000000000000600082015250565b600061527e6014836138c3565b915061528982615248565b602082019050919050565b600060208201905081810360008301526152ad81615271565b9050919050565b600081519050919050565b600082825260208201905092915050565b60006152db826152b4565b6152e581856152bf565b93506152f58185602086016138d4565b6152fe816138fe565b840191505092915050565b600060808201905061531e60008301876139ff565b61532b60208301866139ff565b6153386040830185613b28565b818103606083015261534a81846152d0565b905095945050505050565b60008151905061536481613829565b92915050565b6000602082840312156153805761537f6137f3565b5b600061538e84828501615355565b91505092915050565b7f4552433732313a206d696e7420746f20746865207a65726f2061646472657373600082015250565b60006153cd6020836138c3565b91506153d882615397565b602082019050919050565b600060208201905081810360008301526153fc816153c0565b9050919050565b7f4552433732313a20746f6b656e20616c7265616479206d696e74656400000000600082015250565b6000615439601c836138c3565b915061544482615403565b602082019050919050565b600060208201905081810360008301526154688161542c565b905091905056fea2646970667358221220787ca1c9680d6d72804b4ca7c20077732c09cd4ad5429d89912639d6fe0a76fe64736f6c63430008130033",
  "devdoc": {
    "events": {
      "Approval(address,address,uint256)": {
        "details": "Emitted when `owner` enables `approved` to manage the `tokenId` token."
      },
      "ApprovalForAll(address,address,bool)": {
        "details": "Emitted when `owner` enables or disables (`approved`) `operator` to manage all of its assets."
      },
      "BatchMetadataUpdate(uint256,uint256)": {
        "details": "This event emits when the metadata of a range of tokens is changed. So that the third-party platforms such as NFT market could timely update the images and related attributes of the NFTs."
      },
      "MetadataUpdate(uint256)": {
        "details": "This event emits when the metadata of a token is changed. So that the third-party platforms such as NFT market could timely update the images and related attributes of the NFT."
      },
      "Paused(address)": {
        "details": "Emitted when the pause is triggered by `account`."
      },
      "Transfer(address,address,uint256)": {
        "details": "Emitted when `tokenId` token is transferred from `from` to `to`."
      },
      "Unpaused(address)": {
        "details": "Emitted when the pause is lifted by `account`."
      }
    },
    "kind": "dev",
    "methods": {
      "approve(address,uint256)": {
        "details": "See {IERC721-approve}."
      },
      "balanceOf(address)": {
        "details": "See {IERC721-balanceOf}."
      },
      "getApproved(uint256)": {
        "details": "See {IERC721-getApproved}."
      },
      "isApprovedForAll(address,address)": {
        "details": "See {IERC721-isApprovedForAll}."
      },
      "name()": {
        "details": "See {IERC721Metadata-name}."
      },
      "owner()": {
        "details": "Returns the address of the current owner."
      },
      "ownerOf(uint256)": {
        "details": "See {IERC721-ownerOf}."
      },
      "paused()": {
        "details": "Returns true if the contract is paused, and false otherwise."
      },
      "renounceOwnership()": {
        "details": "Leaves the contract without owner. It will not be possible to call `onlyOwner` functions. Can only be called by the current owner. NOTE: Renouncing ownership will leave the contract without an owner, thereby disabling any functionality that is only available to the owner."
      },
      "royaltyInfo(uint256,uint256)": {
        "details": "Returns how much royalty is owed and to whom, based on a sale price that may be denominated in any unit of exchange. The royalty amount is denominated and should be paid in that same unit of exchange."
      },
      "safeTransferFrom(address,address,uint256)": {
        "details": "See {IERC721-safeTransferFrom}."
      },
      "safeTransferFrom(address,address,uint256,bytes)": {
        "details": "See {IERC721-safeTransferFrom}."
      },
      "setApprovalForAll(address,bool)": {
        "details": "See {IERC721-setApprovalForAll}."
      },
      "symbol()": {
        "details": "See {IERC721Metadata-symbol}."
      },
      "transferFrom(address,address,uint256)": {
        "details": "See {IERC721-transferFrom}."
      },
      "transferOwnership(address)": {
        "details": "Transfers ownership of the contract to a new account (`newOwner`). Can only be called by the current owner."
      }
    },
    "version": 1
  },
  "userdoc": {
    "kind": "user",
    "methods": {},
    "version": 1
  },
  "storageLayout": {
    "storage": [
      {
        "astId": 1639,
        "contract": "contracts/OwnPictureNFT.sol:OwnPictureNFT",
        "label": "_defaultRoyaltyInfo",
        "offset": 0,
        "slot": "0",
        "type": "t_struct(RoyaltyInfo)1636_storage"
      },
      {
        "astId": 1644,
        "contract": "contracts/OwnPictureNFT.sol:OwnPictureNFT",
        "label": "_tokenRoyaltyInfo",
        "offset": 0,
        "slot": "1",
        "type": "t_mapping(t_uint256,t_struct(RoyaltyInfo)1636_storage)"
      },
      {
        "astId": 358,
        "contract": "contracts/OwnPictureNFT.sol:OwnPictureNFT",
        "label": "_name",
        "offset": 0,
        "slot": "2",
        "type": "t_string_storage"
      },
      {
        "astId": 360,
        "contract": "contracts/OwnPictureNFT.sol:OwnPictureNFT",
        "label": "_symbol",
        "offset": 0,
        "slot": "3",
        "type": "t_string_storage"
      },
      {
        "astId": 364,
        "contract": "contracts/OwnPictureNFT.sol:OwnPictureNFT",
        "label": "_owners",
        "offset": 0,
        "slot": "4",
        "type": "t_mapping(t_uint256,t_address)"
      },
      {
        "astId": 368,
        "contract": "contracts/OwnPictureNFT.sol:OwnPictureNFT",
        "label": "_balances",
        "offset": 0,
        "slot": "5",
        "type": "t_mapping(t_address,t_uint256)"
      },
      {
        "astId": 372,
        "contract": "contracts/OwnPictureNFT.sol:OwnPictureNFT",
        "label": "_tokenApprovals",
        "offset": 0,
        "slot": "6",
        "type": "t_mapping(t_uint256,t_address)"
      },
      {
        "astId": 378,
        "contract": "contracts/OwnPictureNFT.sol:OwnPictureNFT",
        "label": "_operatorApprovals",
        "offset": 0,
        "slot": "7",
        "type": "t_mapping(t_address,t_mapping(t_address,t_bool))"
      },
      {
        "astId": 1455,
        "contract": "contracts/OwnPictureNFT.sol:OwnPictureNFT",
        "label": "_tokenURIs",
        "offset": 0,
        "slot": "8",
        "type": "t_mapping(t_uint256,t_string_storage)"
      },
      {
        "astId": 278,
        "contract": "contracts/OwnPictureNFT.sol:OwnPictureNFT",
        "label": "_status",
        "offset": 0,
        "slot": "9",
        "type": "t_uint256"
      },
      {
        "astId": 7,
        "contract": "contracts/OwnPictureNFT.sol:OwnPictureNFT",
        "label": "_owner",
        "offset": 0,
        "slot": "10",
        "type": "t_address"
      },
      {
        "astId": 177,
        "contract": "contracts/OwnPictureNFT.sol:OwnPictureNFT",
        "label": "_paused",
        "offset": 20,
        "slot": "10",
        "type": "t_bool"
      },
      {
        "astId": 3518,
        "contract": "contracts/OwnPictureNFT.sol:OwnPictureNFT",
        "label": "_tokenIds",
        "offset": 0,
        "slot": "11",
        "type": "t_struct(Counter)2186_storage"
      },
      {
        "astId": 3545,
        "contract": "contracts/OwnPictureNFT.sol:OwnPictureNFT",
        "label": "listings",
        "offset": 0,
        "slot": "12",
        "type": "t_mapping(t_uint256,t_struct(Listing)3533_storage)"
      },
      {
        "astId": 3550,
        "contract": "contracts/OwnPictureNFT.sol:OwnPictureNFT",
        "label": "rentals",
        "offset": 0,
        "slot": "13",
        "type": "t_mapping(t_uint256,t_struct(Rental)3540_storage)"
      },
      {
        "astId": 3554,
        "contract": "contracts/OwnPictureNFT.sol:OwnPictureNFT",
        "label": "creators",
        "offset": 0,
        "slot": "14",
        "type": "t_mapping(t_uint256,t_address)"
      },
      {
        "astId": 3558,
        "contract": "contracts/OwnPictureNFT.sol:OwnPictureNFT",
        "label": "creatorBalance",
        "offset": 0,
        "slot": "15",
        "type": "t_mapping(t_address,t_uint256)"
      },
      {
        "astId": 3562,
        "contract": "contracts/OwnPictureNFT.sol:OwnPictureNFT",
        "label": "tokenBlacklist",
        "offset": 0,
        "slot": "16",
        "type": "t_mapping(t_uint256,t_bool)"
      },
      {
        "astId": 3564,
        "contract": "contracts/OwnPictureNFT.sol:OwnPictureNFT",
        "label": "platformWallet",
        "offset": 0,
        "slot": "17",
        "type": "t_address"
      }
    ],
    "types": {
      "t_address": {
        "encoding": "inplace",
        "label": "address",
        "numberOfBytes": "20"
      },
      "t_bool": {
        "encoding": "inplace",
        "label": "bool",
        "numberOfBytes": "1"
      },
      "t_mapping(t_address,t_bool)": {
        "encoding": "mapping",
        "key": "t_address",
        "label": "mapping(address => bool)",
        "numberOfBytes": "32",
        "value": "t_bool"
      },
      "t_mapping(t_address,t_mapping(t_address,t_bool))": {
        "encoding": "mapping",
        "key": "t_address",
        "label": "mapping(address => mapping(address => bool))",
        "numberOfBytes": "32",
        "value": "t_mapping(t_address,t_bool)"
      },
      "t_mapping(t_address,t_uint256)": {
        "encoding": "mapping",
        "key": "t_address",
        "label": "mapping(address => uint256)",
        "numberOfBytes": "32",
        "value": "t_uint256"
      },
      "t_mapping(t_uint256,t_address)": {
        "encoding": "mapping",
        "key": "t_uint256",
        "label": "mapping(uint256 => address)",
        "numberOfBytes": "32",
        "value": "t_address"
      },
      "t_mapping(t_uint256,t_bool)": {
        "encoding": "mapping",
        "key": "t_uint256",
        "label": "mapping(uint256 => bool)",
        "numberOfBytes": "32",
        "value": "t_bool"
      },
      "t_mapping(t_uint256,t_string_storage)": {
        "encoding": "mapping",
        "key": "t_uint256",
        "label": "mapping(uint256 => string)",
        "numberOfBytes": "32",
        "value": "t_string_storage"
      },
      "t_mapping(t_uint256,t_struct(Listing)3533_storage)": {
        "encoding": "mapping",
        "key": "t_uint256",
        "label": "mapping(uint256 => struct OwnPictureNFT.Listing)",
        "numberOfBytes": "32",
        "value": "t_struct(Listing)3533_storage"
      },
      "t_mapping(t_uint256,t_struct(Rental)3540_storage)": {
        "encoding": "mapping",
        "key": "t_uint256",
        "label": "mapping(uint256 => struct OwnPictureNFT.Rental)",
        "numberOfBytes": "32",
        "value": "t_struct(Rental)3540_storage"
      },
      "t_mapping(t_uint256,t_struct(RoyaltyInfo)1636_storage)": {
        "encoding": "mapping",
        "key": "t_uint256",
        "label": "mapping(uint256 => struct ERC2981.RoyaltyInfo)",
        "numberOfBytes": "32",
        "value": "t_struct(RoyaltyInfo)1636_storage"
      },
      "t_string_storage": {
        "encoding": "bytes",
        "label": "string",
        "numberOfBytes": "32"
      },
      "t_struct(Counter)2186_storage": {
        "encoding": "inplace",
        "label": "struct Counters.Counter",
        "members": [
          {
            "astId": 2185,
            "contract": "contracts/OwnPictureNFT.sol:OwnPictureNFT",
            "label": "_value",
            "offset": 0,
            "slot": "0",
            "type": "t_uint256"
          }
        ],
        "numberOfBytes": "32"
      },
      "t_struct(Listing)3533_storage": {
        "encoding": "inplace",
        "label": "struct OwnPictureNFT.Listing",
        "members": [
          {
            "astId": 3526,
            "contract": "contracts/OwnPictureNFT.sol:OwnPictureNFT",
            "label": "seller",
            "offset": 0,
            "slot": "0",
            "type": "t_address"
          },
          {
            "astId": 3528,
            "contract": "contracts/OwnPictureNFT.sol:OwnPictureNFT",
            "label": "price",
            "offset": 0,
            "slot": "1",
            "type": "t_uint256"
          },
          {
            "astId": 3530,
            "contract": "contracts/OwnPictureNFT.sol:OwnPictureNFT",
            "label": "rentPrice",
            "offset": 0,
            "slot": "2",
            "type": "t_uint256"
          },
          {
            "astId": 3532,
            "contract": "contracts/OwnPictureNFT.sol:OwnPictureNFT",
            "label": "isListed",
            "offset": 0,
            "slot": "3",
            "type": "t_bool"
          }
        ],
        "numberOfBytes": "128"
      },
      "t_struct(Rental)3540_storage": {
        "encoding": "inplace",
        "label": "struct OwnPictureNFT.Rental",
        "members": [
          {
            "astId": 3535,
            "contract": "contracts/OwnPictureNFT.sol:OwnPictureNFT",
            "label": "renter",
            "offset": 0,
            "slot": "0",
            "type": "t_address"
          },
          {
            "astId": 3537,
            "contract": "contracts/OwnPictureNFT.sol:OwnPictureNFT",
            "label": "expires",
            "offset": 0,
            "slot": "1",
            "type": "t_uint256"
          },
          {
            "astId": 3539,
            "contract": "contracts/OwnPictureNFT.sol:OwnPictureNFT",
            "label": "isRented",
            "offset": 0,
            "slot": "2",
            "type": "t_bool"
          }
        ],
        "numberOfBytes": "96"
      },
      "t_struct(RoyaltyInfo)1636_storage": {
        "encoding": "inplace",
        "label": "struct ERC2981.RoyaltyInfo",
        "members": [
          {
            "astId": 1633,
            "contract": "contracts/OwnPictureNFT.sol:OwnPictureNFT",
            "label": "receiver",
            "offset": 0,
            "slot": "0",
            "type": "t_address"
          },
          {
            "astId": 1635,
            "contract": "contracts/OwnPictureNFT.sol:OwnPictureNFT",
            "label": "royaltyFraction",
            "offset": 20,
            "slot": "0",
            "type": "t_uint96"
          }
        ],
        "numberOfBytes": "32"
      },
      "t_uint256": {
        "encoding": "inplace",
        "label": "uint256",
        "numberOfBytes": "32"
      },
      "t_uint96": {
        "encoding": "inplace",
        "label": "uint96",
        "numberOfBytes": "12"
      }
    }
  }
}